:020000040800F2
:10000000686E0220ED0200082D800008754000088F
:10001000917F0008530A00082DA10008000000008D
:1000200000000000000000000000000065870008DC
:10003000E10D000800000000C18400081D880008D0
:100040000703000807030008070300080703000868
:100050000703000807030008070300080703000858
:100060000703000807030008070300080703000848
:100070000703000807030008070300080703000838
:100080000703000807030008070300080703000828
:100090000703000807030008070300080703000818
:1000A0000703000807030008070300080703000808
:1000B00007030008898800080703000807030008F1
:1000C00007030008070300080703000807030008E8
:1000D0000703000845A00008E5A000080703000882
:1000E00007030008070300080703000807030008C8
:1000F00007030008070300080703000807030008B8
:1001000007030008070300080703000807030008A7
:100110000703000807030008070300080703000897
:100120000703000807030008070300080703000887
:100130000703000807030008070300080703000877
:100140000703000807030008070300080703000867
:100150000703000807030008070300080703000857
:100160000703000807030008070300080703000847
:100170000703000807030008070300080000000049
:100180000703000807030008070300080703000827
:100190000703000807030008070300080703000817
:1001A0000703000807030008070300080703000807
:1001B00007030008070300080703000807030008F7
:1001C00007030008070300080000000007030008F9
:1001D00007030008070300080703000807030008D7
:1001E00007030008070300080703000807030008C7
:1001F000070300080703000800F002F800F067F8A2
:100200000AA090E8000C82448344AAF10107DA4571
:1002100001D100F05CF8AFF2090EBAE80F0013F05C
:10022000010F18BFFB1A43F001031847A4CF0100C8
:10023000C4CF01000A444FF0000C10F8013B13F04A
:10024000070408BF10F8014B1D1108BF10F8015B2F
:10025000641E05D010F8016B641E01F8016BF9D122
:1002600013F0080F1EBF10F8014BAD1C0C1B09D179
:100270006D1E58BF01F801CBFAD505E014F8016BEB
:1002800001F8016B6D1EF9D59142D6D3704700007D
:100290000023002400250026103A28BF78C1FBD88F
:1002A000520728BF30C148BF0B607047642900F077
:1002B000BD80782900F0F680732900F0F6820020D6
:1002C00070471FB515F01BFB1FBD10B510BD00F02A
:1002D0000FFB1146FFF7F5FF15F010F900F02DFBAD
:1002E00003B4FFF7F2FF03BC09F055FF094880474C
:1002F00009480047FEE7FEE7FEE7FEE7FEE7FEE708
:10030000FEE7FEE7FEE7FEE704480549054A064B1F
:100310007047000025880008F90100086864022081
:10032000686E02206866022068660220704700003E
:100330000FB4044910B503AA029800F0BBFA10BC30
:100340005DF814FB0C0002200FB41CB5074B06AA85
:100350007B4469460090059800F07DFA00206946CC
:1003600000F08CFA1CBC5DF814FB000029050000AD
:100370002DE9F0410E460446002020622046E16847
:10038000884730B3252805D0D4E901219047206A59
:10039000401CF2E7E168204600278847050018D096
:1003A000A5F14100192802D820354FF400673246E4
:1003B000294620462760FFF779FF40B1012804D085
:1003C000F61D26F007060836D8E7361DD6E728467C
:1003D000DAE7206ABDE8F08170B50C460546012ACF
:1003E00005D02878800600D5EA69002302E00123C1
:1003F00005E05B1C934202D2E05C0028F9D1A869B9
:10040000E618C01AA861286A184428622846AFF383
:10041000008004E0D5E9012114F8010B9047B442B3
:10042000F8D32846AFF3008070BD00002DE9F041FD
:100430000646002410687529314616A510D0AFF382
:100440000080002802DA404213A507E031688A07DD
:1004500001D512A502E0490704D511A5012401E048
:10046000AFF3008000210A2206F1240709E0B0FB67
:10047000F2FCB0FBF2F302FB1C003030785418465B
:10048000491C0028F3D123462A463046BDE8F041F6
:1004900000F083B9000000002D0000002B000000D8
:1004A0002000000070B504460D4621461068AFF3E9
:1004B00000802188090502D50F4A7A4402E00E4ADD
:1004C0007A440E32002104F1240305E000F00F0607
:1004D0000009965D5E54491C0028F7D1207800235E
:1004E000000704D5702D02D009B102231132204635
:1004F000BDE8704000F051B9CACB010040EA0103E9
:10050000024630B59B0710D14FF0013400E008C21D
:1005100008C91D1B9D4315EAC41FF8D013F0FF0145
:1005200002F8011B0DD01B0AF8E711F8013B002B64
:1005300002F8013B05D011F8013B002B02F8013B0A
:10054000F3D130BD10B5431C02E010F8011B71B1AE
:100550008107FAD14FF0013202C88C1A8C4314EA99
:10056000C211F9D0C01A0A0603D0C01E10BDC01AAD
:1005700010BD0A0401D0801E10BD0902FCD0401E2F
:1005800010BD032A40F2308010F0030C00F01580FB
:1005900011F8013BBCF1020F624498BF11F801CB86
:1005A00000F8013B38BF11F8013BA2F1040298BFEB
:1005B00000F801CB38BF00F8013B11F0030300F055
:1005C0002580083AC0F0088051F8043B083A51F8F9
:1005D00004CBA0E80810F5E7121D5CBF51F8043BFE
:1005E00040F8043BAFF30080D20724BF11F8013B71
:1005F00011F801CB48BF11F8012B24BF00F8013BD3
:1006000000F801CB48BF00F8012B704710B5203A25
:10061000C0F00B80B1E81850203AA0E81850B1E8BB
:100620001850A0E81850BFF4F5AF5FEA027C24BF71
:10063000B1E81850A0E8185044BF18C918C0BDE868
:1006400010405FEA827C24BF51F8043B40F8043B31
:1006500008BF7047D20728BF31F8023B48BF11F8E6
:10066000012B28BF20F8023B48BF00F8012B704740
:1006700002F0FF0343EA032242EA024200F002B81A
:100680004FF000020429C0F0128010F0030C00F0BB
:100690001B80CCF1040CBCF1020F18BF00F8012B39
:1006A000A8BF20F8022BA1EB0C0100F00DB85FEA07
:1006B000C17C24BF00F8012B00F8012B48BF00F8D3
:1006C000012B70474FF0000200B513469446964642
:1006D000203922BFA0E80C50A0E80C50B1F1200155
:1006E000BFF4F7AF090728BFA0E80C5048BF0CC003
:1006F0005DF804EB890028BF40F8042B08BF704761
:1007000048BF20F8022B11F0804F18BF00F8012BD2
:10071000704700004FF0013C50F8042B51F8043BA7
:100720009A4215D1A2EB0C03934313EACC130BD1DD
:1007300050F8042B51F8043B9A4209D1A2EB0C0368
:10074000934313EACC13E7D04FF00000704700BF8B
:10075000D01A01BAB1FA81F101F0180122FA01F0C0
:10076000CB40C1F12001DBB2C0B2C01A2CFA01F3B8
:10077000D11A914311EAC311E6D17047704770470F
:100780007047704710B500F0A7F8006810BD10B5AD
:10079000044600F0A1F8046010BD2DE9F0470D46B5
:1007A00099469246044600F124080168880604D55B
:1007B000E06921F01001216000E00120A84201DD84
:1007C000471B00E00027A1697A1902EB0900081A0B
:1007D000A0612078C00602D42046AFF30080002636
:1007E00008E0D4E901211AF806009047206A401C6D
:1007F000761C20624E45F4DB2078C0060AD52046E0
:10080000AFF3008006E0D4E9012130209047206A50
:10081000401C2062381EA7F10107F4DC07E0D4E990
:10082000012118F805009047206A401C2062281E0C
:10083000A5F10105F3DC2046AFF300802078000627
:1008400002D50220BDE8F0870120FBE701694A1CC0
:1008500002610878704700B58FB0CDE90131002101
:10086000059105497944CDE9031011466846FFF723
:100870007FFD0FB000BD0000E5FFFFFF0A6802F832
:10088000010B0A60704710B5436913B1AFF30080E4
:1008900001E0FFF7A1FD012010BD127800F1240155
:1008A0000A7000224A700122EDE711684FF0FF3212
:1008B000E9E70000074B70B50D467B44FFF7CBFF1F
:1008C0000446284600F00CF810B14FF0FF3070BD20
:1008D000204670BDC79E0000004870470464022097
:1008E000007B00F0800070470048704704640220DD
:1008F0007546FFF7F9FFAE4605006946534620F0FE
:100900000700854618B020B5FFF7FEFCBDE8204083
:100910004FF000064FF000074FF000084FF0000BBB
:1009200021F00701AC46ACE8C009ACE8C009ACE86E
:10093000C009ACE8C0098D46704710B50446AFF356
:1009400000802046BDE81040FFF7CABC10B503F098
:10095000BDFB10BD2DE9F04107460C4600260025E1
:1009600009E036023919491B491E88B200F008F81F
:100970000644681CC5B2A542F3DB3046BDE8F081F1
:1009800070B50446002603F06BFC2546E11704EB26
:1009900011610912A02202EB4101C8B203F022FC4E
:1009A00003F0B2FCE11704EB11610912A4EB012181
:1009B000C8B203F017FC03F0A7FC03F051FCA12020
:1009C00003F010FC03F0A0FC002003F0D5FB06466A
:1009D00003F070FC304670BD2DE9F04105460E462F
:1009E0001746002409E0E20026FA02F2D1B22A19E1
:1009F00090B200F006F8601CC4B2BC42F3DBBDE864
:100A0000F08170B504460E4603F02AFC2546E11736
:100A100004EB11610912A02202EB4101C8B203F0FC
:100A2000E1FB03F071FCE11704EB11610912A4EB87
:100A30000121C8B203F0D6FB03F066FC304603F098
:100A4000D1FB03F061FC03F035FC0A2009F0FCFC4B
:100A500070BD00BFFEE710B5022009F001FD10BD1A
:100A600010B500224021124801F0AAFA114800688E
:100A700020F0C0000F4908600846006840F04000C0
:100A80000860FFF7E8FF002208210A4801F098FA01
:100A9000FFF7E1FF01224021054801F091FAFFF73D
:100AA000DAFF00224021024801F08AFA10BD00005E
:100AB000001C02400020024000B587B000BF16486D
:100AC000006840F08000144908600846006800F0A3
:100AD0008000019000BF00BF00BF0846006840F4DE
:100AE000807008600846006800F48070019000BFC4
:100AF00000BF402002900120039004900320059045
:100B000002A9064801F044F90820029002A904480D
:100B100001F03EF907B000BD30380240001C024031
:100B20000020024010B500224021124801F048FA8E
:100B30001148006820F0C0000F49086008460068AE
:100B400040F040000860FFF786FF012208210A48B4
:100B500001F036FAFFF77FFF01224021054801F03E
:100B60002FFAFFF778FF00224021024801F028FA0F
:100B700010BD0000001C02400020024070B5054678
:100B800000241748006820F0C00015490860084696
:100B9000006808601E2009F063FC002616E00022B1
:100BA0004021104801F00CFAFFF755FF01224021C7
:100BB0000C4801F005FA6006040E0821084801F00F
:100BC000F3F908B1601CC4B2701CC6B2082EE6DB93
:100BD00015B9FFF7A7FF01E0FFF742FF204670BD00
:100BE00000200240001C024070B504461A4800680C
:100BF00020F0C000184908600846006840F0400036
:100C0000086000224021154801F0DAF9FFF723FFC0
:100C100000251EE0E00928B1012208210E4801F05C
:100C2000CFF904E0002208210B4801F0C9F9600661
:100C3000040E01224021094801F0C2F9FFF70BFF21
:100C400000224021054801F0BBF9FFF704FF681CB2
:100C5000C5B2082DDEDB70BD00200240001C024042
:100C600010B51248006820F0C0001049086008461E
:100C7000006840F040000860012208210B4801F0A4
:100C80009FF9012240210A4801F09AF91E2009F03B
:100C9000E7FB00220821054801F092F9FFF7DBFE8F
:100CA00000224021024801F08BF910BD00200240D3
:100CB000001C024010B51048006820F0C0000E492A
:100CC00008600846006840F04000086001224021AA
:100CD0000A4801F075F91E2009F0C2FB0022082124
:100CE000054801F06DF9FFF7B6FE01220821024820
:100CF00001F066F910BD000000200240001C024017
:100D000010B500241648006820F0C000144908609F
:100D100008460068086001220821114801F050F9D6
:100D2000012240210F4801F04BF9FFF794FE09E042
:100D3000601CC4B2FA2C03DDFFF7BCFF012010BD1C
:100D4000FFF789FE0821064801F02EF90028EFD1AF
:100D500000224021034801F033F90020EFE70000B2
:100D600000200240001C024010B500BF00BF00BFC1
:100D700000BF00BFBFF34F8F00BF00BF00BF00BF69
:100D800000BF00BFBFF36F8F00BF00BF00BF0020D8
:100D9000114908601148006840F400300F490860AC
:100DA00000BF00BF00BFBFF34F8F00BF00BF00BF39
:100DB00000BF00BF00BFBFF36F8F00BF00BF00BF09
:100DC00000BF07F0FFFB04484C30006840F004000F
:100DD00001494C31086010BD50EF00E014ED00E017
:100DE0007047000070B504461D460023B5F5804FDE
:100DF00013D154F822300C480340D1E9000640EAF0
:100E000006108E6840EA06208E8940EA06408E6908
:100E10003043034344F8223003E06FF0704044F85D
:100E20002200002070BD00000000F0CF10B5024687
:100E30000023086852F820301B480340D1E9010420
:100E40002043CC6820430C6920434C6920438C69C3
:100E50002043CC6920430C6A20434C6A20438C6AAF
:100E60002043CC6A20430C6B20438C6B20434C6B9B
:100E7000204303438868082801D143F040030868F1
:100E800042F82030086BB0F5801F05D1086818B112
:100E900010680C6B20431060086818B110684C6B28
:100EA00020431060002010BD8004C0FF30B5034611
:100EB00014460022601C53F8202002F04042D1E981
:100EC000000540EA05108D6840EA05208D8940EA5A
:100ED0000545088A401E45EA0055087D801E45EA02
:100EE00000608D6928430243601C43F82020186885
:100EF00000F4801038B1586820F47002088A401E4F
:100F000042EA00525A60002030BD30B5024600234C
:100F100000240868012816D013686FF30E03D1E986
:100F200001052843CD6828430D6928434D692843AE
:100F30008D692843CD6928430D6A28434D6A2843AB
:100F40000343136019E0136823F4F843D1E907055C
:100F500028434D6A2843034354686FF30E04D1E9D4
:100F600001052843CD6828430D6928434D6928436E
:100F70008D692843044313605460002030BD02464D
:100F8000506940EA4100506100207047F8B50646BC
:100F90000C461546002000900027D4E900010843C4
:100FA000A168491E40EA4110E16840EA41200090F2
:100FB0000098306101F00AF8074609E0681C38B172
:100FC00025B101F003F8C01BA84201D90320F8BDE8
:100FD000B06900F020000028F0D100BFF7E7000062
:100FE00070B50346154600220024012D1FD09A68D3
:100FF00002F070420868401E4E68761E40EA0616EF
:101000008868401E46EA0026C868401E46EA003648
:10101000088A401E46EA0046888A401E46EA005674
:10102000087E401E46EA006002439A6022E09A6809
:1010300011480240C868401E0603888A401E46EADE
:1010400000500243DC6804F070440868401E4E689B
:10105000761E40EA06168868401E46EA0026088A80
:10106000401E46EA0046087E401E46EA00600443F1
:101070009A60DC60002070BDFF0F0FFF00B587B0E5
:1010800000BF4048006840F080003E4908600846C4
:10109000006800F08000009000BF00BF00BF08465D
:1010A000006840F4807008600846006800F48070B2
:1010B000009000BF00BF802001900020029001201E
:1010C00003900320049001A92F4800F061FE4FF423
:1010D000807001900120029001A92C4800F058FE78
:1010E000FFF7EAFC00224FF48071284800F068FF07
:1010F000142009F0A9F901221102244800F060FF30
:10110000322009F0A1F900208DF81800012206A96B
:1011100000F03EF9012206A9A42000F039F91620BA
:101120008DF81800012206A9802000F031F90C206A
:101130008DF81800012206A9882000F029F9022262
:1011400006A9A12000F02AF89DF81800302803D144
:101150009DF81900032807D09DF81900012803D035
:101160009DF8190002280BD19DF819009DF8182050
:1011700000EB022106A0FFF7DBF8002007B000BD5E
:101180000120FBE730380240001C024000200240F2
:101190004354502049443A25780D0A002DE9F04186
:1011A00006460F461546FFF75BFD7020FFF71CFD56
:1011B000FFF7A6FDF0B2FFF717FDFFF7A1FDFFF760
:1011C0004FFD7120FFF710FDFFF79AFD00240BE0A3
:1011D000691EA14201D0012100E000210846FFF76D
:1011E000CDFC3855601CC4B2AC42F1DBFFF762FDA8
:1011F000BDE8F08171B581B0002400266048007818
:10120000401C5F490870084600780A2190FBF1F203
:1012100001FB120018B15A4800780A287EDA012230
:1012200001A90220FFF7BAFF9DF8040000F00F00AB
:1012300000287ED09DF8040000F00F00062878DA20
:101240009DF8040000F00F01FF208840C5B2E8437C
:1012500080B240F0C0004B498886002459E04948DC
:10126000808E0121A1400840F0B3474931F81400B5
:1012700004226946FFF792FF424890F8440000F0CC
:101280000100C0B19DF801009DF8001001F00F01B0
:1012900000EB01213B48203020F814109DF803009A
:1012A0009DF8021001F00F0100EB012035490C31CF
:1012B00021F814001DE09DF801009DF8001001F0D8
:1012C0000F0100EB012031490988081A81B22D482D
:1012D0000C3020F814109DF803009DF8021001F066
:1012E0000F0100EB012000E011E02649203121F838
:1012F00014009DF8000000F0F000802807D00021C5
:101300002048203020F81410143820F81410601CE5
:10131000C4B2052CA3DB01261A4800E009E080894D
:1013200020B91848008C08B9002001900020144909
:1013300008709DF8040000F01F00B8B9114890F83B
:10134000340000F0800030B10E48808E20F0800024
:101350000C4988860AE04FF6FF700A4988810884A4
:10136000084690F8340000F0E000888604480078D1
:10137000F02802DD0A200249087030467CBD0000DA
:10138000240002202800022060A001083803022067
:101390002DE9F04105460E4617464FF00008FFF7CD
:1013A0005FFC7020FFF720FCFFF7AAFCE8B2FFF714
:1013B0001BFCFFF7A5FC00240BE0305DFFF714FCDD
:1013C000FFF79EFC8046B8F1000F00D003E0601CE0
:1013D000C4B2BC42F1DB00BFFFF76CFC4046BDE885
:1013E000F081000000B589B000BF4A48006840F0B5
:1013F0008000484908600846006800F080000190BD
:1014000000BF00BF00BF0846006840F4807008605D
:101410000846006800F48070019000BF00BF802083
:10142000029000200390012004900320059002A95F
:10143000394800F0ADFC4FF4807002900120039019
:1014400002A9364800F0A4FCFFF736FB00224FF457
:101450008071324800F0B4FD0A2008F0F5FF012247
:1014600011022E4800F0ACFD0A2008F0EDFF8020AC
:1014700002900020039004900320059002A92648C2
:1014800000F086FC642008F0DFFF042207A948F280
:10149000401000F05BF800208DF8200007A920A084
:1014A000FEF746FF21A107A8FFF734F978BB022019
:1014B0008DF81C00012207A948F2400000F0E2F973
:1014C000012207A948F2470000F040F89DF81C00EF
:1014D00060280DDA9DF81C1016A0FEF729FF1A48A7
:1014E000808845F21051884202D1012000F09CF919
:1014F0000A2008F0A9FF00208DF81C00012207A98E
:1015000048F2400000F0BEF9002009B000BDFFE73E
:101510000120FAE730380240001C0240002002405F
:101520004354502049443A25730D0A003931343769
:101530000000000044656661756C74205665723A5F
:1015400025640D0A00000000380302202DE9F04157
:1015500005460F461646FFF783FB2820FFF744FB9E
:10156000FFF7CEFB2812FFF73FFBFFF7C9FBE8B2FE
:10157000FFF73AFBFFF7C4FBFFF772FB2920FFF7E9
:1015800033FBFFF7BDFB00240BE0711EA14201D02D
:10159000012100E000210846FFF7F0FA3855601CF1
:1015A000C4B2B442F1DBFFF785FBBDE8F081000077
:1015B00071B583B00024002697480078401C9649F6
:1015C0000870084600780A2190FBF1F201FB120036
:1015D00018B1914800780A2871DA012203A948F26B
:1015E0004E10FFF7B3FF9DF80C0000F0800068B1CB
:1015F0009DF80C0000F00F00062807DA002001908B
:10160000012201A948F24E1000F03CF99DF80C00AF
:1016100000F00F00002852D09DF80C0000F00F00E1
:101620000628D9DA9DF80C0000F00F01FF20884051
:10163000C0B20190794890F834509DF80400C0433E
:1016400080B240F0C0007549888608468189818251
:10165000018C0185002487E07048808E0121A14023
:10166000084000287ED06E4931F81400042202A9F7
:10167000FFF76CFF6B48808845F21051884236D1E5
:10168000664890F8440000F00100C8B19DF80800D9
:101690009DF8091000EB012081B26048203020F84D
:1016A00014109DF80A009DF80B1000EB0120C0F506
:1016B000487081B259480C3020F8141052E083E091
:1016C0009DF808009DF8091000EB012081B25348F5
:1016D0000C3020F814109DF80A009DF80B1000EB58
:1016E000012081B24D48203020F814103AE04D48D6
:1016F000808844F24231884234D1484890F844000E
:1017000000F00100B0B19DF808009DF8091000EB51
:10171000012081B241480C3020F814109DF80A00D5
:101720009DF80B1000EB012081B23C48203020F8DE
:10173000141017E09DF808009DF8091000EB012037
:1017400081B23648203020F814109DF80A009DF828
:101750000B1000EB0120C0F5887081B22F480C30CF
:1017600020F81410601CC4B2052CFFF675AF0126DA
:101770002A4880892B490988884205DC2748008C43
:101780002849498888421CDD9DF80C0000F00F00B4
:1017900001280ADD2148C089204988810846408CFB
:1017A000088400201C4908700EE01C48808A1B49F0
:1017B00088810846008D088480200390084685862D
:1017C00002E00020144908709DF80C0000F08F0022
:1017D000802817D1114890F8340000F0800030B113
:1017E0000E48808E20F080000C4988860AE04FF673
:1017F000FF700A4988810884084690F8340000F098
:10180000E000888604480078F02802DD0A200249BA
:101810000870304604B070BD250002202800022068
:1018200022A101083803022038B505460024002013
:101830008DF800008DF8015000BF09E09DF8000010
:101840000F49095D0844C0B28DF80000601CC4B2A5
:10185000B82CF3D39DF80000C043401CC0B28DF8F3
:101860000000B822064948F2470000F00BF80222B7
:10187000694648F2FF0000F005F8002038BD00007E
:101880006AA001082DE9F04104460E4617464FF0C4
:101890000008FFF7E5F92820FFF7A6F9FFF730FA6F
:1018A0002012FFF7A1F9FFF72BFAE0B2FFF79CF93E
:1018B000FFF726FA00250BE0705DFFF795F9FFF7BB
:1018C0001FFA8046B8F1000F00D003E0681CC5B2D3
:1018D000BD42F1DB00BFFFF7EDF94046BDE8F08106
:1018E00000B589B000BF4748006840F08000454916
:1018F00008600846006800F08000019000BF00BF4B
:1019000000BF0846006840F4807008600846006820
:1019100000F48070019000BF00BF80200290002082
:101920000390012004900320059002A9364800F09E
:101930002FFA4FF4807002900120039002A93348DF
:1019400000F026FAFFF7B8F800224FF480712F4814
:1019500000F036FB0A2008F077FD012211022B4827
:1019600000F02EFB0A2008F06FFD8020029000207E
:10197000039004900320059002A9234800F008FA80
:10198000642008F061FD042207A948F2401000F02D
:1019900055F800208DF8200007A91DA0FEF7C8FC0F
:1019A0001FA107A8FEF7B6FE48BB02208DF81C0059
:1019B000012207A948F24000FFF764FF012207A9AE
:1019C00048F24700FFF7C2FD9DF81C00412807DAE6
:1019D0009DF81C1014A0FEF7ABFC012000F068F984
:1019E0000A2008F031FD00208DF81C00012207A913
:1019F00048F24000FFF746FF002009B000BD01207B
:101A0000FBE7000030380240001C0240002002408A
:101A10004354502049443A25730D0A0D0A00000032
:101A2000393237310000000044656661756C7420FE
:101A30005665723A25640D0A000000002DE9F04158
:101A400005460F461646FFF70BF92820FFF7CCF89E
:101A5000FFF756F92812FFF7C7F8FFF751F9E8B278
:101A6000FFF7C2F8FFF74CF9FFF7FAF82920FFF764
:101A7000BBF8FFF745F900240BE0711EA14201D02D
:101A8000012100E000210846FFF778F83855601C76
:101A9000C4B2B442F1DBFFF70DF9BDE8F0810000FC
:101AA00071B583B00020019000267D480078401C6D
:101AB0007B490870084600780A2190FBF1F201FB8F
:101AC000120018B1764800780A286EDA012203A9BC
:101AD00048F24E10FFF7B2FF9DF80C0000F08000B6
:101AE00068B19DF80C0000F00F000B2807DA002009
:101AF0000190012201A948F24E1000F007F99DF86B
:101B00000C0000F00F0000284FD09DF80C0000F0F2
:101B10000F000B28D9DA9DF80C0000F00F014FF6EA
:101B2000FF70884084B25F48858EE04380B240F009
:101B3000C0005C49888608468189C183018C418642
:101B40000020019053E05748808E9DF80420012129
:101B50009140084040B354499DF8042031F81200E8
:101B6000062202A9FFF76AFF4E4890F8440000F0F1
:101B70000100D8B19DF80A009DF80B1000EB012080
:101B800081B2484820309DF8042020F812109DF8BA
:101B900008009DF8091000EB012081B241480C308B
:101BA0009DF8042020F812101CE051E09DF80A0076
:101BB0009DF80B1000EB0120C0F5487081B2394848
:101BC0000C309DF8042020F812109DF808009DF8B4
:101BD000091000EB012081B2324820309DF804202A
:101BE00020F812109DF80400401CC0B201909DF82E
:101BF00004000A28A7DB01262A4880892B49098886
:101C0000884205DC2748008C2849498888421CDD29
:101C10009DF80C0000F00F0001280ADD2148C08962
:101C2000204988810846408C088400201C4908709F
:101C30000EE01C48C08B1B4988810846408E0884F2
:101C4000802003900846858602E000201449087031
:101C50009DF80C0000F08F00802816D1114890F8F4
:101C6000340000F0800030B10E48808E20F08000FB
:101C70000C49888609E04FF6FF700A49888108847C
:101C80000846808E00F46040888605480078F02879
:101C900002DD0A2002490870304604B070BD000021
:101CA0002600022028000220E6A1010838030220B5
:101CB00038B50546002400208DF800008DF801504D
:101CC00000BF09E09DF800000F49095D0844C0B25B
:101CD0008DF80000601CC4B2B82CF3D39DF800004E
:101CE000C043401CC0B28DF80000BA22064948F239
:101CF000470000F00BF80222694648F2FF0000F0AE
:101D000005F8002038BD00002CA101082DE9F041A4
:101D100004460E4617464FF00008FEF7A1FF2820A4
:101D2000FEF762FFFEF7ECFF2012FEF75DFFFEF705
:101D3000E7FFE0B2FEF758FFFEF7E2FF00250BE0F9
:101D4000705DFEF751FFFEF7DBFF8046B8F1000F34
:101D500000D003E0681CC5B2BD42F1DB00BFFEF756
:101D6000A9FF4046BDE8F081014691F83500022800
:101D700003D08020486501207047052081F8350098
:101D80000868006820F001000A6810600020F3E78E
:101D9000F8B502460B46002100250024002000BFB4
:101DA000E4E0012606FA01F51E6806EA0504AC42E5
:101DB00071D15E68022E02D05E68122E13D1CF0858
:101DC00002F1200656F827004E07F70E0F26BE40F8
:101DD000B0434F07FF0E1E69BE403043CF0802F1EB
:101DE000200646F8270010684F000326BE40B04387
:101DF0001E7906F003064F00BE40304310605E6857
:101E0000012E08D05E68022E05D05E68112E02D029
:101E10005E68122E13D190684F000326BE40B04377
:101E20004F00DE68BE4030439060506801268E400F
:101E3000B0431E79C6F300168E4030435060D06820
:101E40004F000326BE40B0434F009E68BE40304363
:101E5000D0605E6806F08056B6F1805FA8D100BF02
:101E6000444E366846F48046424F3E603E463668F1
:101E700006F48046009600BF00BF3F4E8F0856F81C
:101E800027008E07370F0F26BE40B0433B4EB242AD
:101E900002D100262EE068E0394EB24201D101267F
:101EA00028E0384EB24201D1022623E0364EB2423B
:101EB00001D103261EE0354EB24201D1042619E0BD
:101EC000334EB24201D1052614E0324EB24201D166
:101ED00006260FE0304EB24201D107260AE02F4E0F
:101EE000B24201D1082605E02D4EB24201D10926A9
:101EF00000E00A268F073F0FBE4030431E4E8F087A
:101F000046F82700274E3068A0435E6806F4803606
:101F1000B6F5803F00D12043224E3060361D306838
:101F2000A0435E6806F40036B6F5003F00D12043BA
:101F30001C4E361D3060361D3068A0435E6806F4C6
:101F40008016B6F5801F00D12043164E083630604B
:101F5000361D3068A0435E6806F40016B6F5001F13
:101F600000D120430F4E0C363060491C1029FFF47D
:101F700018AFF8BD44380240083801400000024064
:101F80000004024000080240000C02400010024021
:101F90000014024000180240001C024000200240D1
:101FA00000240240003C0140024613690B400BB183
:101FB000012000E00020704742694A4042617047BA
:101FC0000AB1816101E00B04836170470148006838
:101FD000704700000400022002480068401C0149CC
:101FE000086070470400022010B50848006840F4FB
:101FF000007006490860052000F06CFA0F2000F020
:1020000007F800F01BFA002010BD0000003C024061
:1020100070B50446074800684FF47A71B0FBF1F5DB
:10202000284601F0ADFC00222146501E00F014FAB3
:10203000002070BD0000022070B504460E46154613
:1020400000BF94F8A000012801D1022070BD01203A
:1020500084F8A00000BF022084F8A10005EB8501F0
:1020600001EBC50204F1380101EB82003422314654
:10207000FEF7CCFA2A463146204605F01DFE012027
:102080002168486284F8A10000BF002084F8A00005
:1020900000BF00BFDAE7000070B504460025002647
:1020A0000CB9012070BD94F8A10028B9002084F873
:1020B000A000204600F084F8022084F8A1002068E7
:1020C000806920F0704021688861D4E901010843EB
:1020D000E168084321690843216889690843216848
:1020E0008861206880683549084021688860A08A36
:1020F000050420688068A169294308432168886035
:102100002068C0682D4908402168C860A08B05047C
:102110002068C068216A294308432168C860206894
:1021200000692649084021680861A08C05042068E0
:102130000069A16A29430843216808612068406951
:102140001E49084021684861A08D05042068406947
:10215000216B294308432168486194F83500050242
:1021600094F8360006042068C06A00F07F402168B9
:10217000C86246EA050094F8341008432168C96A29
:1021800008432168C8622068406B40F00400216861
:1021900048632068406B40F0020021684863206873
:1021A000806940F00100216888610020C4F8A40023
:1021B000012084F8A100002074E7000000F800F07E
:1021C00010B586B0044600BF4748006840F0806004
:1021D000454908600846006800F08060009000BF34
:1021E00000BF00BF40481438006840F400003E497A
:1021F000143908600846006800F40000009000BF31
:1022000000BF00BF0846006840F0020008600846B2
:10221000006800F00200009000BF00BF00BF084649
:10222000006840F0200008600846006800F02000C8
:10223000009000BF00BF00BF0846006840F04000AB
:1022400008600846006800F04000009000BF00BF32
:1022500000BF0846006840F080000860084600683B
:1022600000F08000009000BF00BF00BF084600687B
:1022700040F4807008600846006800F480700090A8
:1022800000BF00BF20200190012002900390032096
:10229000049001A91548FFF77BFD4FF48060019081
:1022A0000220029000200390032004900E2005904D
:1022B00001A90F48FFF76CFD4FF40C60019001A9D4
:1022C0000C48FFF765FD4FF47E40019001A90A48D4
:1022D000FFF75EFD40F2F760019001A90748FFF7A4
:1022E00057FD06B010BD0000443802400004024013
:1022F0000014024000180240001C0240002002406E
:102300002DE9F04104460E461746984600BF94F862
:10231000A000012802D10220BDE8F081012084F84C
:10232000A00000BF022084F8A10008EB880000EBA9
:10233000C80104F1380000EB81052E60A86A304422
:102340006860AF60E86A3844E86042462946204643
:1023500005F0B2FC01202168486284F8A10000BFAA
:10236000002084F8A00000BF00BFD5E72DE9F041B0
:1023700005460E461746984600BF95F8A00001286E
:1023800002D10220BDE8F081012085F8A00000BF45
:10239000022085F8A10008EB880000EBC80105F1D8
:1023A000380000EB81040020206020683044606029
:1023B0000020A060A0683844E060A662E762424660
:1023C0002146284605F078FC01202968486285F8F6
:1023D000A10000BF002085F8A00000BF00BFD1E72A
:1023E0004178154A11600178F9B1121D41681160F8
:1023F000017B0907C27A41EA0261827A41EAC2415D
:10240000427B41EA8241827B41EA4241C27B41EA0E
:102410000241427A41EA0221027A41EA420102780B
:102420001143054A0832116005E00021024A121DDD
:102430001160121D1160704798ED00E0704700BFF9
:1024400000F01F02012191404209920002F1E022B6
:10245000C2F8001100BF70472DE9F05F80460D46BD
:102460001646002705F0E4FD074639462A4633465E
:1024700001F00700C0F1070ABAF1040F02D94FF0CA
:10248000040A01E0C0F1070AD14600F1040ABAF1DA
:10249000070F02D24FF0000A01E0A0F1030AD44670
:1024A0004FF0010A0AFA09FAAAF1010A0AEA020A35
:1024B0000AFA0CFA4FF0010B0BFA0CFBABF1010B13
:1024C0000BEA030B4AEA0B042146404605F0B8FD2F
:1024D000BDE8F09F00BF00F00702064B19684FF6F9
:1024E000FF031940044B0B4343EA0221014B1960DF
:1024F00000BF70470CED00E00000FA0538B500247D
:1025000000BF2048006840F080501E49086008461F
:10251000006800F08050009000BF00BF1A480068BB
:1025200040F4803018490860FFF750FD044607E08A
:10253000FFF74CFD001BB0F57A7F01D9032038BDB1
:102540001148406800F48030B0F5803FF0D10E486B
:10255000006840F400300C490860FFF737FD04467E
:1025600007E0FFF733FD001BB0F57A7F01D90320A8
:10257000E5E70548406800F40030B0F5003FF0D1D1
:102580000020DCE740380240007000402DE9F843AD
:102590000446002600250027A846A946207800F01A
:1025A000010088B100BFFE48006820F40000FC492B
:1025B000086008460068616B0843F949086000BF7D
:1025C000606B08B94FF00108206800F40020B0F5F6
:1025D000002F13D1F2488430006820F44010E16BE2
:1025E0000843EF4984310860E06BB0F5801F01D1EA
:1025F0004FF00108E06B08B94FF00109206800F4C2
:102600008010B0F5801F13D1E5488430006820F4B5
:102610004000216C0843E24984310860206CB0F529
:10262000800F01D14FF00108206C08B94FF001096B
:10263000206800F08070B0F1807F01D14FF0010878
:10264000207800F02000202870D100BFD448383016
:10265000006840F08050D249383108600846006870
:1026600000F08050009000BF00BFCE48006840F4EA
:102670008070CC490860FFF7A9FC064607E0FFF729
:10268000A5FC801B642802D90320BDE8F883C54857
:10269000006800F480700028F1D0C14868300068FC
:1026A00000F4407585B3208E00F44070A8422BD012
:1026B000BB486830006820F44075B948683000684D
:1026C00040F48030B649683108600846006820F45C
:1026D0008030086008460560006800F0010098B18D
:1026E000FFF774FC064608E0FFF770FC801B41F220
:1026F0008831884201D90320C7E7A94868300068BB
:10270000C0F340000028EFD000BF208E00F44070DE
:10271000B0F5407F0BD1A248006820F4F810A24A1F
:10272000216B114008439E49086006E010E09C4878
:10273000006820F4F8109A490860994868300068E9
:10274000218EC1F30B01084395496831086000BF31
:10275000207800F01000102810D100BF904884307D
:10276000006820F080708E49843108600846006857
:10277000A16B08438A498431086000BF208800F4B7
:102780008040B0F5804F09D185488830006820F43A
:102790004030616E0843824988310860208800F427
:1027A0000040B0F5004F09D17D488830006820F422
:1027B0004020A16E08437A4988310860206800F4FF
:1027C0008030B0F5803F09D175488830006820F42A
:1027D0004010E16E0843724988310860206800F4B7
:1027E0000030B0F5003F09D16D488830006820F412
:1027F0004000216F08436A4988310860207800F062
:102800004000402809D166488830006820F0030065
:10281000616C0843624988310860207800F08000CC
:10282000802809D15E488830006820F00C00A16C37
:1028300008435B4988310860208800F48070B0F557
:10284000807F09D156488830006820F03000E16C64
:102850000843534988310860208800F40070B0F5BF
:10286000007F09D14E488830006820F0C000216DFB
:1028700008434B4988310860208800F48060B0F537
:10288000806F09D146488830006820F44070616D3F
:102890000843434988310860208800F40060B0F59F
:1028A000006F09D13E488830006820F44060A16D77
:1028B00008433B4988310860208800F48050B0F517
:1028C000805F09D136488830006820F44050E16DBF
:1028D0000843334988310860208800F40050B0F57F
:1028E000005F09D12E488830006820F44040216EF6
:1028F00008432B4988310860206800F48000B0F557
:10290000800F09D126488830006820F08060A16FD0
:102910000843234988310860206800F40010B0F5AE
:10292000001F0FD11E488830006820F00060E16F62
:1029300008431B4988310860E06FB0F1006F01D196
:102940004FF00109207800F00800082801D14FF06D
:102950000109206800F48020B0F5802F09D11048CB
:102960008830006820F04070616F08430C4988315E
:102970000860206800F40000B0F5000F0AD1084894
:102980008830006820F08050D4F880100843044953
:1029900088310860206800F08060B0F1806F05E049
:1029A0000838024000700040FFFCFF0F08D1FE48CD
:1029B000006820F00050D4F884100843FA490860F9
:1029C000206800F00060B0F1006F0AD1F648001FE7
:1029D000006820F00070D4F888100843F249091FFD
:1029E0000860206800F08050B0F1805F0AD1EE48A6
:1029F000001F006820F08060D4F88C100843EA497A
:102A0000091F0860B8F1010F03D02068B0F1007F02
:102A10007DD1E5489038006820F08060E249903927
:102A20000860FFF7D3FA064606E0FFF7CFFA801BEF
:102A3000642801D9032028E6DB4890380068C0F3F9
:102A4000C0600028F1D1207800F00100F0B3606B85
:102A5000E0BBD5480C38006800F440304FF44031FA
:102A600091FAA1F1B1FA81F120FA01F5CE480C38C2
:102A7000006800F070604FF0706191FAA1F1B1FA56
:102A800081F120FA01F747F6C07191FAA1F1B1FA8C
:102A900081F1606888404FF4403191FAA1F1B1FAB8
:102AA00081F105FA01F108434FF0706191FAA1F14B
:102AB000B1FA81F107FA01F108434FF0E04292FACE
:102AC000A2F2B2FA82F2A168914000E003E008436A
:102AD000B5490C390860206800F40020B0F5002FDB
:102AE00003D1E06BB0F5801F09D0206800F480109E
:102AF000B0F5801F50D1206CB0F5800F4CD1AA48A2
:102B00000C38006800F440304FF4403100E0CFE072
:102B100091FAA1F1B1FA81F120FA01F5A2480C383D
:102B2000006800F0E0404FF0E04191FAA1F1B1FA05
:102B300081F120FA01F747F6C07191FAA1F1B1FADB
:102B400081F1606888404FF4403191FAA1F1B1FA07
:102B500081F105FA01F108434FF0706292FAA2F296
:102B6000B2FA82F2E168914008434FF0E04191FAF5
:102B7000A1F1B1FA81F107FA01F108438A490C3950
:102B800008608948001F006820F01F00616A491E24
:102B900008438549091F0860206800F08070B0F183
:102BA000807F3FD180480C38006800F070604FF0A3
:102BB000706191FAA1F1B1FA81F120FA01F57A4838
:102BC0000C38006800F0E0404FF0E04191FAA1F1CC
:102BD000B1FA81F120FA01F747F6C07191FAA1F13B
:102BE000B1FA81F1606888404FF4403292FAA2F263
:102BF000B2FA82F22169914008434FF0706191FA74
:102C0000A1F1B1FA81F105FA01F108434FF0E04179
:102C100091FAA1F1B1FA81F107FA01F10843624991
:102C20000C390860206800F00070B0F1007F25D1F9
:102C300047F6C07191FAA1F1B1FA81F1606888405C
:102C40004FF4403292FAA2F2B2FA82F22169914034
:102C500008434FF0706292FAA2F2B2FA82F2E1688F
:102C6000914008434FF0E04292FAA2F2B2FA82F2A7
:102C7000A168914008434C490C3908604A48903893
:102C8000006840F08060484990390860FFF79EF97D
:102C9000064606E0FFF79AF9801B642801D9032055
:102CA000F3E4414890380068C0F3C0600028F1D0D8
:102CB000B9F1010F69D13C489038006820F080508C
:102CC000394990390860FFF781F9064606E0FFF7B9
:102CD0007DF9801B642801D90320D6E4324890385E
:102CE0000068C0F340700028F1D1206800F4002093
:102CF000B0F5002F01D1E06B38B1206800F48010EE
:102D0000B0F5801F4FD1206CF0BB27480838006811
:102D100000F440304FF4403191FAA1F1B1FA81F161
:102D200020FA01F520480838006800F0E0404FF034
:102D3000E04191FAA1F1B1FA81F120FA01F747F6E9
:102D4000C07191FAA1F1B1FA81F1606988404FF444
:102D5000403191FAA1F1B1FA81F105FA01F108438C
:102D60004FF0706292FAA2F2B2FA82F2A169914037
:102D700008434FF0E04191FAA1F1B1FA81F107FA6D
:102D800001F10843084901E00DE0BBE008390860A3
:102D9000081D006820F4F851A06A401E41EA002096
:102DA0000149091F086001E090380240206800F4E2
:102DB0000010B0F5001F40D1E06FB0F1006F3CD1C2
:102DC0005148006800F070604FF0706191FAA1F115
:102DD000B1FA81F120FA01F54B48006800F0E040BB
:102DE0004FF0E04191FAA1F1B1FA81F120FA01F737
:102DF00047F6C07191FAA1F1B1FA81F1606988409A
:102E00004FF4403292FAA2F2B2FA82F2216A914071
:102E100008434FF0706191FAA1F1B1FA81F105FA1E
:102E200001F108434FF0E04191FAA1F1B1FA81F1CB
:102E300007FA01F1084334490860207800F00800DF
:102E4000082845D13048006800F070604FF070618C
:102E500091FAA1F1B1FA81F120FA01F52A4800684E
:102E600000F440304FF4403191FAA1F1B1FA81F110
:102E700020FA01F747F6C07191FAA1F1B1FA81F198
:102E8000606988404FF4403191FAA1F1B1FA81F1C3
:102E900007FA01F108434FF0706191FAA1F1B1FA1C
:102EA00081F105FA01F108434FF0E04292FAA2F2F3
:102EB000B2FA82F2E1699140084313490860081DA3
:102EC000006820F44030E16A08430F49091D08609A
:102ED0000D488838006840F080500B4988390860F8
:102EE000FFF774F8064606E0FFF770F8801B6428C9
:102EF00001D903209FE5044888380068C0F340707A
:102F00000028F1D0002096E58838024070B50446CC
:102F10000D4600266648006800F00F00A8420ED259
:102F20006348006820F00F002843614908600846A4
:102F3000006800F00F00A84201D0012070BD207889
:102F400000F00200022807D15A48006820F0F00083
:102F5000A168084357490860207800F00100002864
:102F600060D06068012807D1524808380068C0F373
:102F70004040A0B90120E1E76068022807D14D4830
:102F800008380068C0F3406048B90120D6E74948D6
:102F900008380068C0F3400008B90120CEE7454872
:102FA000006820F003006168084342490860FFF7A9
:102FB0000DF806466068012810D108E0FFF706F812
:102FC000801B41F28831884201D90320B6E7394895
:102FD000006800F00C000428F0D123E060680228AB
:102FE00010D108E0FEF7F2FF801B41F288318842E1
:102FF00001D90320A2E72F48006800F00C00082840
:10300000F0D10FE008E0FEF7E1FF801B41F28831CC
:10301000884201D9032091E72648006800F00C009F
:103020000028F0D12248006800F00F00A8420ED915
:103030001F48006820F00F0028431D49086008461B
:10304000006800F00F00A84201D0012076E7207848
:1030500000F00400042807D11648006820F4E0506E
:10306000E168084313490860207800F00800082848
:1030700008D11048006820F46040216940EAC1008E
:103080000C49086000F04EF80A49096801F0F001A7
:10309000F02292FAA2F2B2FA82F2D140064A515CD0
:1030A000C840064908600F20FEF7B2FF002045E740
:1030B000003C024008380240085901080000022084
:1030C00001480068704700000000022000B5FFF7CB
:1030D000F7FF0749096801F4E0514FF4E05292FA12
:1030E000A2F2B2FA82F2D140024A515CC84000BD5D
:1030F000083802401859010800B5FFF7E1FF0749F9
:10310000096801F460414FF4604292FAA2F2B2FA07
:1031100082F2D140024A515CC84000BD08380240EA
:103120001859010870B50021002200230020274C07
:10313000246804F00C0424B1042C04D0082C41D1E0
:1031400003E0234840E023483EE0204C241F24684D
:1031500004F03F011D4C241F246804F4800484B152
:103160001C4CB4FBF1F5194C241F246847F6C076BB
:10317000344096FAA6F6B6FA86F6F44005FB04F259
:103180000FE0134CB4FBF1F5104C241F246847F6F4
:10319000C076344096FAA6F6B6FA86F6F44005FBF9
:1031A00004F20A4C241F246804F440344FF44035E0
:1031B00095FAA5F5B5FA85F5EC40641C6300B2FB01
:1031C000F3F001E0024800BF00BF70BD08380240C4
:1031D0000024F40040787D0138B5044600252078AD
:1031E00000F00100002871D0FE48006800F00C00DB
:1031F00004280DD0FB48006800F00C00082813D10B
:10320000F848001F006800F48000B0F5800F0BD173
:10321000F44808380068C0F34040002869D060686E
:10322000002866D1012038BD00BF6068B0F5803F3E
:1032300008D1EC480838006840F48030E949083982
:1032400008602EE0606868B9E6480838006820F435
:103250008030E449083908600846006820F480207E
:1032600008601EE06068B0F5A02F0DD1DD48083879
:10327000006840F48020DB4908390860084600688F
:1032800040F4803008600CE0D6480838006820F42C
:103290008030D449083908600846006820F480204E
:1032A000086000BF606890B1FEF790FE054606E03A
:1032B000FEF78CFE401B642801D90320B3E7C94800
:1032C00008380068C0F340400028F1D011E0FEF754
:1032D0007DFE054606E0FEF779FE401B642801D915
:1032E0000320A0E7BF4808380068C0F3404000282A
:1032F000F1D1207800F00200022873D1B9480068AB
:1033000000F00C0058B1B748006800F00C00082825
:1033100021D1B448001F006800F48000D8B9B1483A
:1033200008380068C0F3400020B1E068012801D0EF
:10333000012078E7AB480838006820F0F800F82250
:1033400092FAA2F2B2FA82F2216991400843A549A9
:103350000839086046E0E06850B3A24808380068C1
:1033600040F001009F4908390860FEF72FFE05462E
:1033700006E0FEF72BFE401B022801D9032052E78E
:10338000984808380068C0F340000028F1D09548FC
:103390000838006820F0F800F82292FAA2F2B2FA97
:1033A00082F22169914008438E490839086019E08A
:1033B0008C480838006820F001008A490839086004
:1033C000FEF704FE054606E0FEF700FE401B02285D
:1033D00001D9032027E7834808380068C0F340007C
:1033E0000028F1D1207800F00800082836D1606963
:1033F000D0B17C486C30006840F0010079496C31F4
:103400000860FEF7E3FD054606E0FEF7DFFD401B22
:10341000022801D9032006E772486C300068C0F327
:1034200040000028F1D019E06E486C30006820F0B0
:1034300001006C496C310860FEF7C8FD054606E0E6
:10344000FEF7C4FD401B022801D90320EBE66548C6
:103450006C300068C0F340000028F1D1207800F003
:103460000400042871D100BF5E483830006840F085
:1034700080505C49383108600846006800F0805090
:10348000009000BF00BF5848006840F48070564963
:103490000860FEF79BFD054606E0FEF797FD401B22
:1034A000642801D90320BEE64F48006800F480700C
:1034B0000028F2D000BFA068012808D14948683030
:1034C000006840F001004749683108602DE0A068BD
:1034D00068B944486830006820F00100414968310B
:1034E00008600846006820F0040008601DE0A0683D
:1034F00005280DD13B486830006840F00400394988
:10350000683108600846006840F0010008600CE07F
:1035100034486830006820F00100324968310860A2
:103520000846006820F00400086000BFA068A8B149
:10353000FEF74CFD054609E0FEF748FD401B41F251
:103540008831884202D903206DE61BE025486830A7
:103550000068C0F340000028EED013E0FEF736FD0F
:10356000054608E0FEF732FD401B41F288318842F3
:1035700001D9032057E61B4868300068C0F34000BB
:103580000028EFD1A06988B31648006800F00C004D
:10359000082873D0A069022864D11248083800684E
:1035A00020F080700F4908390860FEF70FFD0546CE
:1035B00006E0FEF70BFD401B022801D9032032E68E
:1035C000084808380068C0F340600028F1D1D4E909
:1035D0000701084347F6C07292FAA2F2B2FA82F2E9
:1035E000616A04E0083802400070004058E09140F1
:1035F00008430122A16AC2EB51014FF4403292FA12
:10360000A2F2B2FA82F2914008434FF0706292FA4D
:10361000A2F2B2FA82F2E16A914008434FF0E0422E
:1036200092FAA2F2B2FA82F2216B914008431D494C
:103630000860081F006840F08070091F0860FEF7EE
:10364000C5FC054606E0FEF7C1FC401B022801D977
:103650000320E8E51348001F0068C0F3406000281D
:10366000F1D01DE00F48001F006820F080700D4968
:10367000091F0860FEF7AAFC054607E00EE0FEF70A
:10368000A5FC401B022801D90320CCE50548001FFA
:103690000068C0F340600028F1D101E00120C2E5DC
:1036A0000020C0E50438024070B504460D460CB950
:1036B000012070BD94F82C0028B9002084F82D005A
:1036C000204600F011F8022084F82C00211D20680B
:1036D000FDF71BFC2946D4E90002FDF781FC01201F
:1036E00084F82C000020E4E710B586B0044600BF43
:1036F0003E48006840F001003C4908600846006808
:1037000000F00100009000BF00BF00BF374808383C
:10371000006840F004003549083908600846006830
:1037200000F00400009000BF00BF00BF0846006822
:1037300040F0080008600846006800F008000090AB
:1037400000BF00BF00BF0846006840F010000860DE
:103750000846006800F01000009000BF00BF00BFE6
:103760000846006840F0200008600846006800F045
:103770002000009000BF00BF00BF0846006840F076
:10378000400008600846006800F04000009000BF5C
:1037900000BF0D2001900220029001200390032021
:1037A00004900C20059001A91148FEF7F1FA4CF2A3
:1037B0000370019001A90F48FEF7EAFA4FF68370F3
:1037C000019001A90C48FEF7E3FA4FF63F00019083
:1037D00001A90A48FEF7DCFA48F23710019001A966
:1037E0000748FEF7D5FA06B010BD00003838024091
:1037F00000080240000C0240001002400014024089
:103800000018024070B504460D4694F82C000228BA
:1038100000D170BD022084F82C0029462068FDF7F5
:10382000AEFB012084F82C000020F2E770B50446BE
:103830000D46164694F82C00022800D170BD0220D7
:1038400084F82C00324629462068FDF79FFB286843
:10385000022803D1052084F82C0002E0012084F81E
:103860002C000020EAE770B504460E4615460CB958
:10387000012070BD94F8450028B9002084F8440068
:10388000204600F01DF804F108012068FDF7CEFA8B
:103890003146A2682068FDF709FB2946E36AD4E9AE
:1038A0000102FDF79FFAA168206850F8210040F05E
:1038B0000100A268216841F822000020D9E7000039
:1038C00010B586B0044600BF2048006840F00100F3
:1038D0001E4908600846006800F00100009000BF23
:1038E00000BF00BF19480838006840F008001749B9
:1038F000083908600846006800F00800009000BF22
:1039000000BF00BF0846006840F01000086008468D
:10391000006800F01000009000BF00BF4EF2B370CE
:1039200001900220029001200390032004900C20BB
:10393000059001A90648FEF72BFA4FF6807001901A
:1039400001A90448FEF724FA06B010BD3838024039
:10395000000C024000100240042808D14FF0E02182
:10396000096941F004014FF0E022116107E04FF0D6
:10397000E021096921F004014FF0E0221161704754
:1039800070B504462546681EB0F1807F01D3012042
:103990000FE0681E4FF0E02148610F214FF0FF302B
:1039A00004F04EFB00204FF0E02188610720086101
:1039B000002070BD7047704710B504460CB9012057
:1039C00010BD94F8390010B9204600F00DF802201F
:1039D00084F83900211D206804F074FF012084F868
:1039E00039000020ECE7000038B504460D49206896
:1039F000884215D100BF0C48006840F002000A4917
:103A000008600846006800F00200009000BF00BF98
:103A1000032201211D20FEF71FFD1D20FEF70FFDD3
:103A200038BD0000000400404038024001460868EC
:103A3000C06840F001000A68D0600868006840F083
:103A400001000A68106000207047704710B50446F6
:103A500020680069C0F34000D8B12068C068C0F396
:103A60004000B0B16FF002002168086101202076AB
:103A70002068806900F0030018B12046FFF7E5FFD9
:103A800005E0204600F0BEF8204600F0BCF800201B
:103A9000207620680069C0F38000D8B12068C06833
:103AA000C0F38000B0B16FF004002168086102200B
:103AB00020762068806900F4407018B12046FFF736
:103AC000C4FF05E0204600F09DF8204600F09BF87A
:103AD0000020207620680069C0F3C000D8B12068BB
:103AE000C068C0F3C000B0B16FF008002168086181
:103AF000042020762068C06900F0030018B1204639
:103B0000FFF7A3FF05E0204600F07CF8204600F018
:103B10007AF80020207620680069C0F30010D8B140
:103B20002068C068C0F30010B0B16FF010002168C9
:103B30000861082020762068C06900F4407018B140
:103B40002046FFF782FF05E0204600F05BF82046A4
:103B500000F059F8002020762068006900F001008C
:103B600058B12068C06800F0010030B16FF001006A
:103B700021680861204600F047F820680069C0F31A
:103B8000C01058B12068C068C0F3C01030B16FF0E9
:103B90008000216808612046FFF70CFF206800695B
:103BA000C0F3002058B12068C068C0F3C01030B125
:103BB0006FF08000216808612046FFF7FBFE206857
:103BC0000069C0F3801058B12068C068C0F380104D
:103BD00030B16FF0400021680861204600F020F805
:103BE00020680069C0F3401058B12068C068C0F375
:103BF000401030B16FF02000216808612046FFF7C7
:103C0000DAFE10BD7047704710B504460348844281
:103C100002D1012011F038F910BD00006804022023
:103C2000704770472DE9F04104462068C569206857
:103C300006682068876805F00F08B8F1000F0AD100
:103C400005F0200038B106F0200020B1204605F034
:103C500082FFBDE8F081B8F1000F79D040F2011089
:103C60003840002874D005F0010048B106F4807097
:103C700030B1012021680862E06E40F00100E0668A
:103C800005F0020048B107F0010030B102202168C0
:103C90000862E06E40F00400E06605F0040048B100
:103CA00007F0010030B1042021680862E06E40F0A6
:103CB0000200E06605F0080060B106F0200010B9CF
:103CC00007F0010030B1082021680862E06E40F082
:103CD0000800E066E06E58B305F0200028B106F059
:103CE000200010B1204605F036FFE06E00F008001D
:103CF00020B92068806800F0400018B3204605F025
:103D00000AFF2068806800F04000B8B12068806831
:103D100020F0400021688860606E50B11748616EE5
:103D20000865606EFEF720F810B1606E016D88477F
:103D30000DE02046FFF775FF09E009E02046FFF798
:103D400070FF04E02046FFF76CFF0020E06680E78C
:103D500005F0800030B106F0800018B1204606F072
:103D600005F976E705F0400030B106F0400018B1E3
:103D7000204605F0E0FE6CE700BF6AE7FF9A000806
:103D800010B504460CB9012010BDA06900B100E0D7
:103D900000BF94F8690028B9002084F86800204624
:103DA00000F02AF8242084F869002068006820F0D8
:103DB000010021680860204605F012FF012800D1AB
:103DC000E2E7606A10B1204605F0EAFD206840682D
:103DD00020F49040216848602068806820F02A0024
:103DE000216888602068006840F001002168086050
:103DF000204605F04AFEC7E710B586B004462349C1
:103E00002068884240D100BF2148006840F001008E
:103E10001F4908600846006800F00100009000BFDC
:103E200000BF00BF1A481430006840F01000184965
:103E3000143108600846006800F01000009000BFD0
:103E400000BF48150190022002900120039002203B
:103E500004900720059001A90E48FDF799FF4FF443
:103E60008060019001A90B48FDF792FF206800686F
:103E700040F02000216808602520FEF7E0FA0322C8
:103E800011462520FEF7E8FA06B010BD00100140EB
:103E900030380240000002402DE9F84F04460D463C
:103EA000164699464FF0000A94F86A0020287AD105
:103EB00005B116B90120BDE8F88F00BF94F868007D
:103EC000012801D10220F6E7012084F8680000BF34
:103ED0000020583460612220A074FEF777F88246F3
:103EE00026806680583C00BFA068B0F5805F0AD18C
:103EF000206920B940F2FF10A4F85C001CE0FF200C
:103F0000A4F85C0018E0A06848B9206918B9FF203F
:103F1000A4F85C0010E07F20A4F85C000CE0A0682E
:103F2000B0F1805F08D1206918B97F20A4F85C0047
:103F300002E03F20A4F85C0000BFB4F85C8024E0FD
:103F4000B4F85A00401EA4F85A005346002220211B
:103F50002046CDF8009006F03EF808B10320AAE70D
:103F6000A068B0F5805F09D1206938B92F46206874
:103F7000406A00EA08003880AD1C06E02068406A0C
:103F800008F0FF01084005F8010BB4F85A000028BA
:103F9000D6D1202084F86A0000BF002084F8680091
:103FA00000BF88E7FFE7022085E770472DE9F84367
:103FB00004460D4616461F464FF0000994F8690066
:103FC000202854D105B116B90120BDE8F88300BFFF
:103FD00094F86800012801D10220F6E7012084F856
:103FE000680000BF00205034E06121206076FDF7BA
:103FF000EDFF814626806680503C21E0B4F85200F7
:10400000401EA4F852004B46002280212046009713
:1040100005F0E1FF08B10320D7E7A068B0F5805FA5
:104020000AD1206940B9A846B8F80000C0F30800DA
:1040300021688862AD1C03E015F8010B21688862D5
:10404000B4F852000028D9D14B4600224021204626
:10405000009705F0C0FF08B10320B6E7202084F8E0
:10406000690000BF002084F8680000BFADE70220AF
:10407000ABE7704700BFFEE710B5002210211248E1
:10408000FDF79EFF1048006820F440600E4908606C
:104090000846006840F480600860002220210A4839
:1040A000FDF78EFF022006F0DBF901221021064801
:1040B000FDF786FF022006F0D3F900221021024806
:1040C000FDF77EFF10BD0000001C024000B587B068
:1040D00000BF1248006840F08000104908600846A0
:1040E000006800F08000019000BF00BF3020029007
:1040F0000120039004900220059002A90848FDF7D2
:1041000047FE012220210648FDF75AFF0122102117
:104110000348FDF755FF07B000BD000030380240EE
:10412000001C024010B5002210211248FDF748FF84
:104130001048006820F440600E4908600846006896
:1041400040F480600860012220210A48FDF738FF12
:10415000022006F085F9012210210648FDF730FF04
:10416000022006F07DF9002210210248FDF728FF09
:1041700010BD0000001C024070B505460024184820
:10418000006820F44060164908600846006808602E
:1041900000261AE0002210211148FDF711FF02202D
:1041A00006F05EF9012210210D48FDF709FF6006B7
:1041B000040E20210A48FDF7F7FE08B1601CC4B2C6
:1041C000012006F04DF9701CC6B2082EE2DB15B9CD
:1041D000FFF7A8FF01E0FFF74FFF204670BD00008A
:1041E000001C024070B504461C48006820F4406082
:1041F0001A4908600846006840F4806008600022A0
:1042000010211648FDF7DCFE002523E0E00928B167
:10421000012220211148FDF7D3FE04E000222021D5
:104220000E48FDF7CDFE6006040E022006F018F9D8
:10423000012210210948FDF7C3FE022006F010F903
:10424000002210210548FDF7BBFE022006F008F908
:10425000681CC5B2082DD9DB70BD0000001C0240EF
:1042600010B51348006820F4406011490860084602
:10427000006840F480600860012220210C48FDF7AE
:104280009FFE012210210A48FDF79AFE042006F045
:10429000E7F8002220210648FDF792FE042006F0F0
:1042A000DFF8002210210248FDF78AFE10BD000051
:1042B000001C024010B51348006820F4406011490A
:1042C00008600846006840F4806008600022102101
:1042D0000C48FDF775FE002220210A48FDF770FE0C
:1042E000042006F0BDF8012210210648FDF768FE03
:1042F000042006F0B5F8012220210248FDF760FEF7
:1043000010BD0000001C024010B5002417480068D2
:1043100020F44060154908600846006808600122E2
:1043200020211248FDF74CFE012006F099F80122E9
:1043300010210E48FDF744FE012006F091F807E039
:10434000601CC4B2FA2C03DDFFF7B4FF012010BDDE
:1043500020210648FDF728FE0028F1D10022102177
:104360000248FDF72DFE0020F1E70000001C02408E
:1043700000B587B000BF1048006840F080000E49CB
:1043800008600846006800F08000019000BF00BF90
:104390000C2002900120039004900320059002A9B4
:1043A0000648FDF7F5FC0420044918310860082090
:1043B000086007B000BD000030380240001C024019
:1043C00000B587B000BF2448006840F001002249D2
:1043D00008600846006800F00100019000BF00BFBF
:1043E00000BF0846006840F0040008600846006806
:1043F00000F00400019000BF00BF00BF0846006845
:1044000040F0800008600846006800F080000190DD
:1044100000BF00BF01200290002003900220049002
:104420000320059002A90D48FDF7B2FC4FF400509F
:10443000029000200390012004900320059002A91F
:104440000748FDF7A5FC0C20029002A90548FDF7DE
:104450009FFC07B000BD0000303802400000024061
:1044600000080240001C024070B5044600260D48BA
:1044700005880D48006818B1204603F06BF80FE07E
:104480000848408845430021084602F055FE03F0E5
:1044900023F8002602E005490C80761CAE42FAD3D0
:1044A00070BD0000380302204804022000000860AC
:1044B0002DE9FF4F81B080460D469146DDF838A0CA
:1044C0001848006840B1CDF800A04A462946404649
:1044D000049B03F065F821E0A9EB0800401C86B2BC
:1044E0000498401B401C1FFA80FB002414E028198C
:1044F00081B2404602F020FE02F0EEFF002707E006
:1045000004FB06703AF8100007490880781C87B24F
:10451000B742F5DB601C84B25C45E8DB05B0BDE862
:10452000F08F0000480402200000086010B5044627
:104530005C4884715C48006850B1204603F0D8F8AC
:104540005948C08A574908805748008B488010BD99
:10455000002C51D1F020534908804FF4A0704880BE
:104560000846808849F24131884205D04D4880880C
:1045700045F21031884214D12C204A4908812A2062
:1045800048812B2088810846808845F21031884276
:1045900006D14FF4A070434908804FF4F070488072
:1045A0007BE04048808845F21051884210D14FF49A
:1045B00030503C4908814FF4285048814FF42C502A
:1045C00088814FF4F07008804FF44870488064E0B0
:1045D0003448808841F6631188425ED12C203149ED
:1045E00008812B2048812A2088814FF4F0700880B0
:1045F0004FF44870488050E04FF4A070294908807B
:10460000F02048800846808849F24131884205D030
:104610002448808845F21031884207D12C20214956
:1046200008812A2048812B20888129E01D48808824
:1046300045F21051884210D14FF430501949088189
:104640004FF4285048814FF42C5088814FF4487023
:1046500008804FF4F070488012E01248808841F6DC
:10466000631188420CD12C200E4908812A204881F0
:104670002B2088814FF4487008804FF4F0704880F8
:104680000848808845F21031884206D14FF4F07016
:10469000044908804FF4A0704880002002F012FC0A
:1046A00000BF54E738030220480402202DE9FF4FE1
:1046B00085B081468A460020049003900798A0EBBD
:1046C00009050898A0EB0A06CDF80890CDF804A0DB
:1046D000002D01DD012705E00DB9002702E04FF0B4
:1046E000FF376D42002E02DD4FF0010806E016B9DB
:1046F0004FF0000802E04FF0FF387642B54201DD8E
:104700002C4600E034464FF0000B21E0019A91B2B4
:10471000029A90B200F022F804982844049003987A
:10472000304403900498A04205DD0498001B0490D7
:104730000298384402900398A04205DD0398001BBC
:1047400003900198404401900BF101001FFA80FB97
:10475000601C8345DADD09B0BDE8F08F70B5044612
:104760000D460A48006830B10948294602682046CB
:1047700002F0D4FF09E02946204602F0DDFC02F0F9
:10478000ABFE034800880349088070BD480402203E
:1047900014000220000008602DE9F04706460F468D
:1047A0009046002445460320A0EB48093CE07A1BD4
:1047B00091B2321990B2FFF7D1FF3A1B91B2721940
:1047C00090B2FFF7CBFF3A1991B2721990B2FFF78E
:1047D000C5FF7A1991B2321990B2FFF7BFFF7A196B
:1047E00091B2321B90B2FFF7B9FF3A1991B2721B26
:1047F00090B2FFF7B3FF7A1B91B2321B90B2FFF772
:10480000ADFF3A1B91B2721B90B2FFF7A7FF641C79
:10481000B9F1000F03DAA000801D814404E0601BA1
:1048200080000A3081446D1EAC42C0DDBDE8F087D7
:1048300070B504460D4616464348006828B1324616
:104840002946204602F06AFF70BD4048808849F240
:104850004131884205D03D48808845F21031884278
:1048600014D13A49488902F02BFE201202F01CFEB6
:10487000E0B202F019FE3549888902F021FE2812C3
:1048800002F012FEE8B202F00FFE54E02F488088DA
:1048900045F21051884220D12C49488902F010FE7F
:1048A000201202F001FE29494989491C88B202F010
:1048B00007FEE0B202F0F8FD2449888902F000FE0C
:1048C000281202F0F1FD21498989491C88B202F0C1
:1048D000F7FDE8B202F0E8FD2DE01C48808841F6C3
:1048E0006311884227D11948807920B91748008878
:1048F000401E001B84B21549488902F0E1FD2012D8
:1049000002F0D2FDE0B202F0CFFD201202F0CCFDA9
:10491000E0B202F0C9FD0D49888902F0D1FD2812EC
:1049200002F0C2FDE8B202F0BFFD281202F0BCFDA9
:10493000E8B202F0B9FD0548008905490880891CE4
:104940000E8000BF80E700004804022038030220E8
:10495000FEFF076000B595B003F042F9FE4988807C
:104960000846808818B102F0A5FF02F0E2B900BF46
:10497000FA48006840F00200F849086008460068FC
:1049800000F00200019000BF00BF20201090012025
:10499000119012900320139010A9F148FDF7F8F937
:1049A00002F010FA4FF02040EE490860EE484860EF
:1049B000002088600021EB48C16001611021416145
:1049C000090241628900C1620F20099000200A900B
:1049D00050200B9000200F900F2002900020039099
:1049E0000F2004900020089002AA09A9DD48FEF7D4
:1049F0003AFF322005F028FDD32002F061FD02F0DD
:104A00002FFAD549888002F02BFAD349888002F02A
:104A100027FAD1498880084680884FF6FF7101EA5D
:104A20000020CD49888002F01BFACB4989880843D1
:104A3000C94988800846808849F24131884278D047
:104A4000D42002F03DFD02F00BFAC349888002F049
:104A500007FAC149888002F003FABF4988800846F6
:104A600080884FF6FF7101EA0020BB49888002F080
:104A7000F7F9B94989880843B7498880084680888A
:104A800045F21031884254D04FF45A4002F018FDDC
:104A900002F0E6F9B04988804FF45B4002F010FD67
:104AA00002F0DEF9AC498880084680884FF6FF7135
:104AB00001EA0020A84988804FF45C4002F000FD24
:104AC00002F0CEF9A44989880843A34988800846A2
:104AD0008088B0F5004F02D145F2105088809E4882
:104AE000808845F21051884223D0A12002F0E8FCD2
:104AF00002F0B6F99849888002F0B2F996498880A8
:104B0000084680884FF6FF7101EA002092498880AC
:104B100002F0A6F99049898808438F4988800846A1
:104B2000808845F26171884203D141F663108A4959
:104B30008880894881888DA0FBF7FAFB86488088A9
:104B400049F2413188427CD1CF2002F0B9FC0020EB
:104B500002F0AAFCC12002F0A7FC302002F0A4FC65
:104B6000ED2002F0ADFC642002F09EFC032002F078
:104B70009BFC122002F098FC812002F095FCE820BA
:104B800002F09EFC852002F08FFC102002F08CFCCD
:104B90007A2002F089FCCB2002F092FC392002F04E
:104BA00083FC2C2002F080FC002002F07DFC3420ED
:104BB00002F07AFC022002F077FCF72002F080FC81
:104BC000202002F071FCEA2002F07AFC002002F0C2
:104BD0006BFC002002F068FCC02002F071FC1B207E
:104BE00002F062FCC12002F06BFC012002F05CFCD0
:104BF000C52002F065FC302002F056FC302002F0A7
:104C000053FCC72002F05CFCB72002F04DFC3620BC
:104C100002F056FC482002F047FC3A2002F050FC1B
:104C2000552002F041FCB12002F04AFC002002F0C5
:104C30003BFC1A2002F038FCB62002F041FC0A20AE
:104C400000E0ABE002F030FCA22002F02DFCF220EC
:104C500002F036FC002002F027FC262002F030FC97
:104C6000012002F021FCE02002F02AFC0F2002F0DB
:104C70001BFC2A2002F018FC282002F015FC08205A
:104C800002F012FC0E2002F00FFC082002F00CFCD7
:104C9000542002F009FCA92002F006FC432002F097
:104CA00003FC0A2002F000FC0F2002F0FDFB0020B4
:104CB00002F0FAFB002002F0F7FB002002F0F4FB08
:104CC000002002F0F1FBE12002F0FAFB002002F0EC
:104CD000EBFB152002F0E8FB172002F0E5FB0720B4
:104CE00002F0E2FB112002F0DFFB062002F0DCFB09
:104CF0002B2002F0D9FB562002F0D6FB3C2002F01C
:104D0000D3FB052002F0D0FB102002F0CDFB0F20DA
:104D100002F0CAFB3F2002F0C7FB3F2002F0C4FBB9
:104D20000F2002F0C1FB2B2002F0CAFB002002F092
:104D3000BBFB002002F0B8FB012002F0B5FB3F20D6
:104D400002F0B2FB2A2002F0BBFB002002F0ACFB19
:104D5000002002F0A9FB11E03803022030380240A5
:104D600000040240EC020220040100A0204C434455
:104D70002049443A25780D0A00000000002002F086
:104D800093FBEF2002F090FB112002F099FB7820BA
:104D900005F05AFB292002F093FBE6E5FE488088E7
:104DA00045F21031884240F07C87ED2002F088FB0C
:104DB000012002F079FBFE2002F076FBEE2002F0EB
:104DC0007FFBDE2002F070FB212002F06DFBF12062
:104DD00002F076FB012002F067FBDF2002F070FB9F
:104DE000102002F061FBC42002F06AFB8F2002F069
:104DF0005BFBC62002F064FB002002F055FBE220C2
:104E000002F052FBE22002F04FFBE22002F04CFBEA
:104E1000BF2002F055FBAA2002F046FBB02002F0B2
:104E20004FFB0D2002F040FB002002F03DFB0D2067
:104E300002F03AFB002002F037FB112002F034FBB5
:104E4000002002F031FB192002F02EFB002002F0BE
:104E50002BFB212002F028FB002002F025FB2D2057
:104E600002F022FB002002F01FFB3D2002F01CFBA1
:104E7000002002F019FB5D2002F016FB002002F07A
:104E800013FB5D2002F010FB002002F00DFBB120AF
:104E900002F016FB802002F007FB002002F004FB6A
:104EA0008B2002F001FB002002F0FEFA962002F0B7
:104EB000FBFA002002F0F8FAB22002F001FB002019
:104EC00002F0F2FA002002F0EFFA022002F0ECFA0F
:104ED000002002F0E9FA032002F0E6FA002002F0D6
:104EE000E3FAB32002F0ECFA002002F0DDFA002031
:104EF00002F0DAFA002002F0D7FA002002F0D4FA29
:104F0000002002F0D1FA002002F0CEFA002002F0D8
:104F1000CBFA002002F0C8FA002002F0C5FA002007
:104F200002F0C2FA002002F0BFFA002002F0BCFA40
:104F3000002002F0B9FA002002F0B6FA002002F0D8
:104F4000B3FA002002F0B0FA002002F0ADFA00201F
:104F500002F0AAFA002002F0A7FA002002F0A4FA58
:104F6000002002F0A1FA002002F09EFA002002F0D8
:104F70009BFA002002F098FAB42002F0A1FA8B20EC
:104F800002F092FA002002F08FFA962002F08CFADA
:104F9000002002F089FAA12002F086FA002002F037
:104FA00083FAB52002F08CFA022002F07DFA00208C
:104FB00002F07AFA032002F077FA002002F074FA85
:104FC000042002F071FA002002F06EFAB62002F01E
:104FD00077FA002002F068FA002002F065FAB720A4
:104FE00002F06EFA002002F05FFA002002F05CFA94
:104FF0003F2002F059FA002002F056FA5E2002F03B
:1050000053FA002002F050FA642002F04DFA00201A
:1050100002F04AFA8C2002F047FA002002F044FA2B
:10502000AC2002F041FA002002F03EFADC2002F04F
:105030003BFA002002F038FA702002F035FA002026
:1050400002F032FA902002F02FFA002002F02CFA3F
:10505000EB2002F029FA002002F026FADC2002F010
:1050600023FA002002F020FAB82002F029FA0020EA
:1050700002F01AFA002002F017FA002002F014FAE7
:10508000002002F011FA002002F00EFA002002F0D7
:105090000BFA002002F008FA002002F005FABA200C
:1050A00002F00EFA242002F0FFF9002002F0FCF9D1
:1050B000002002F0F9F9002002F0F6F9C12002F018
:1050C000FFF9202002F0F0F9002002F0EDF9542061
:1050D00002F0EAF9002002F0E7F9FF2002F0E4F91B
:1050E000002002F0E1F9C22002F0EAF90A2002F001
:1050F000DBF9002002F0D8F9042002F0D5F90020F5
:1051000002F0D2F9C32002F0DBF93C2002F0CCF926
:10511000002002F0C9F93A2002F0C6F9002002F09E
:10512000C3F9392002F0C0F9002002F0BDF93720A0
:1051300002F0BAF9002002F0B7F93C2002F0B4F90D
:10514000002002F0B1F9362002F0AEF9002002F0A2
:10515000ABF9322002F0A8F9002002F0A5F92F20C7
:1051600002F0A2F9002002F09FF92C2002F09CF935
:10517000002002F099F9292002F096F9002002F0AF
:1051800093F9262002F090F9002002F08DF92420F6
:1051900002F08AF9002001E03803022002F084F9CD
:1051A000242002F081F9002002F07EF9232002F091
:1051B0007BF9002002F078F93C2002F075F900201C
:1051C00002F072F9362002F06FF9002002F06CF95B
:1051D000322002F069F9002002F066F92F2002F077
:1051E00063F9002002F060F92C2002F05DF9002044
:1051F00002F05AF9292002F057F9002002F054F980
:10520000262002F051F9002002F04EF9242002F08D
:105210004BF9002002F048F9242002F045F9002063
:1052200002F042F9232002F03FF9002002F03CF99D
:10523000C42002F045F9622002F036F9002002F0A5
:1052400033F9052002F030F9002002F02DF9842016
:1052500002F02AF9002002F027F9F02002F024F9E8
:10526000002002F021F9182002F01EF9002002F0BF
:105270001BF9A42002F018F9002002F015F91820FB
:1052800002F012F9002002F00FF9502002F00CF9A0
:10529000002002F009F90C2002F006F9002002F0CB
:1052A00003F9172002F000F9002002F0FDF8952024
:1052B00002F0FAF8002002F0F7F8F32002F0F4F818
:1052C000002002F0F1F8E62002F0EEF8002002F0F3
:1052D000EBF8C52002F0F4F8322002F0E5F80020E7
:1052E00002F0E2F8442002F0DFF8002002F0DCF8DF
:1052F000652002F0D9F8002002F0D6F8762002F0FE
:10530000D3F8002002F0D0F8882002F0CDF8002079
:1053100002F0CAF8C62002F0D3F8202002F0C4F848
:10532000002002F0C1F8172002F0BEF8002002F0C1
:10533000BBF8012002F0B8F8002002F0B5F8C72051
:1053400002F0BEF8002002F0AFF8002002F0ACF846
:10535000002002F0A9F8002002F0A6F8C82002F010
:10536000AFF8002002F0A0F8002002F09DF8002025
:1053700002F09AF8002002F097F8C92002F0A0F895
:10538000002002F091F8002002F08EF8002002F0D8
:105390008BF8002002F088F8002002F085F8002049
:1053A00002F082F8002002F07FF8002002F07CF882
:1053B000002002F079F8002002F076F8002002F0D8
:1053C00073F8002002F070F8002002F06DF8002061
:1053D00002F06AF8002002F067F8002002F064F89A
:1053E000E02002F06DF8162002F05EF8002002F0D6
:1053F0005BF81C2002F058F8002002F055F821203C
:1054000002F052F8002002F04FF8362002F04CF87B
:10541000002002F049F8462002F046F8002002F091
:1054200043F8522002F040F8002002F03DF86420DA
:1054300002F03AF8002002F037F87A2002F034F84F
:10544000002002F031F88B2002F02EF8002002F04C
:105450002BF8992002F028F8002002F025F8A82067
:1054600002F022F8002002F01FF8B92002F01CF828
:10547000002002F019F8C42002F016F8002002F013
:1054800013F8CA2002F010F8002002F00DF8D22024
:1054900002F00AF8002002F007F8D92002F004F820
:1054A000002002F001F8E02001F0FEFF002001F0F2
:1054B000FBFFF32001F0F8FF002001F0F5FFE120F1
:1054C00001F0FEFF162001F0EFFF002001F0ECFFDD
:1054D0001C2001F0E9FF002001F0E6FF222001F08E
:1054E000E3FF002001F0E0FF362001F0DDFF0020A7
:1054F00001F0DAFF452001F0D7FF002001F0D4FFD2
:10550000522001F0D1FF002001F0CEFF642001F015
:10551000CBFF002001F0C8FF7A2001F0C5FF00207A
:1055200001F0C2FF8B2001F0BFFF002001F0BCFFA3
:10553000992001F0B9FF002001F0B6FFA82001F08A
:10554000B3FF002001F0B0FFB92001F0ADFF002053
:1055500001F0AAFFC42001F0A7FF002001F0A4FF82
:10556000CA2001F0A1FF002001F09EFFD22001F02F
:105570009BFF002001F098FFD82001F095FF00204C
:1055800001F092FFE02001F08FFF002001F08CFF7E
:10559000F32001F089FF002001F086FFE22001F0F6
:1055A0008FFF052001F080FF002001F07DFF0B2020
:1055B00001F07AFF002001F077FF1B2001F074FF5B
:1055C000002001F071FF342001F06EFF002001F097
:1055D0006BFF442001F068FF002001F065FF4F20C1
:1055E00001F062FF002001F05FFF612001F05CFF2D
:1055F000002001F059FF792001F056FF002001F052
:1056000053FF882001F050FF002001F04DFF97204C
:1056100001F04AFF002001F047FFA62001F044FFFF
:10562000002001F041FFB72001F03EFF002001F013
:105630003BFFC22001F038FF002001F035FFC720FA
:1056400001F032FF002001F02FFFD12001F02CFFEC
:10565000002001F029FFD62001F026FF002001F0F4
:1056600023FFDD2001F020FF002001F01DFFF320CB
:1056700001F01AFF002001F017FFE32001F020FFE6
:10568000052001F011FF002001F00EFF0A2001F0BB
:105690000BFF002001F008FF1C2001F005FF002097
:1056A00001F002FF332001F0FFFE002001F0FCFEBC
:1056B000442001F0F9FE002001F0F6FE502001F038
:1056C000F3FE002001F0F0FE622001F0EDFE00206C
:1056D00001F0EAFE782001F0E7FE002001F0E4FE90
:1056E000882001F0E1FE002001F0DEFE972001F0AD
:1056F000DBFE002001F0D8FEA62001F0D5FE002040
:1057000001F0D2FEB72001F0CFFE002001F0CCFE68
:10571000C22001F0C9FE002001F0C6FEC72001F042
:10572000C3FE002001F0C0FED12001F0BDFE00202C
:1057300001F0BAFED52001F0B7FE002001F0B4FE62
:10574000DD2001F0B1FE002001F0AEFEF32001F0FB
:10575000ABFE002001F0A8FEE42001F0B1FE012024
:1057600001F0A2FE002001F09FFE012001F09CFE4E
:10577000002001F099FE022001F096FE002001F0C9
:1057800093FE2A2001F090FE002001F08DFE3C20C7
:1057900001F08AFE002001F087FE4B2001F084FE1C
:1057A000002001F081FE5D2001F07EFE002001F06E
:1057B0007BFE742001F078FE002001F075FE84204D
:1057C00001F072FE002001F06FFE932001F06CFEEC
:1057D000002001F069FEA22001F066FE002001F029
:1057E00063FEB32001F060FE002001F05DFEBE20EC
:1057F00001F05AFE002001F057FEC42001F054FED3
:10580000002001F051FECD2001F04EFE002001F0FD
:105810004BFED32001F048FE002001F045FEDD20C4
:1058200001F042FE002001F03FFEF32001F03CFEBB
:10583000002001F039FEE52001F042FE002001F0D9
:1058400033FE002001F030FE002001F02DFE00208C
:1058500001F02AFE022001F027FE002001F024FEC4
:10586000292001F021FE002001F01EFE3C2001F065
:105870001BFE002001F018FE4B2001F015FE002059
:1058800001F012FE5D2001F00FFE002001F00CFE81
:10589000742001F009FE002001F006FE842001F0D2
:1058A00003FE002001F000FE932001F0FDFD00202A
:1058B00001F0FAFDA22001F0F7FD002001F0F4FD57
:1058C000B32001F0F1FD002001F0EEFDBE2001F05B
:1058D000EBFD002001F0E8FDC42001F0E5FD002013
:1058E00001F0E2FDCD2001F0DFFD002001F0DCFD44
:1058F000D32001F0D9FD002001F0D6FDDC2001F01D
:10590000D3FD002001F0D0FDF32001F0CDFD0020FB
:1059100001F0CAFDE62001F0D3FD112001F0C4FD25
:10592000002001F0C1FD342001F0BEFD002001F097
:10593000BBFD562001F0B8FD002001F0B5FD76203A
:1059400001F0B2FD002001F0AFFD772001F0ACFDC9
:10595000002001F0A9FD662001F0A6FD002001F065
:10596000A3FD882001F0A0FD002001F09DFD9920FD
:1059700001F09AFD002001F097FDBB2001F094FD9D
:10598000002001F091FD992001F08EFD002001F032
:105990008BFD662001F088FD002001F085FD55207B
:1059A00001F082FD002001F07FFD552001F07CFD1B
:1059B000002001F079FD452001F076FD002001F086
:1059C00073FD432001F070FD002001F06DFD4420C7
:1059D00001F06AFD002001F067FDE72001F070FD95
:1059E000322001F061FD002001F05EFD552001F044
:1059F0005BFD002001F058FD762001F055FD0020F0
:105A000001F052FD662001F04FFD002001F04CFD39
:105A1000672001F049FD002001F046FD672001F0FC
:105A200043FD002001F040FD872001F03DFD0020F6
:105A300001F03AFD992001F037FD002001F034FD1E
:105A4000BB2001F031FD002001F02EFD992001F076
:105A50002BFD002001F028FD772001F025FD00201E
:105A600001F022FD442001F01FFD002001F01CFD8B
:105A7000562001F019FD002001F016FD232001F051
:105A800013FD002001F010FD332001F00DFD00207A
:105A900001F00AFD452001F007FD002001F004FDA2
:105AA000E82001F00DFD002001F0FEFC002001F0D7
:105AB000FBFC992001F0F8FC002001F0F5FC8720A8
:105AC00001F0F2FC002001F0EFFC882001F0ECFC7A
:105AD000002001F0E9FC772001F0E6FC002001F055
